{
  "_format": "hh-sol-artifact-1",
  "contractName": "CodeStorage",
  "sourceName": "contracts/codestorage.sol",
  "abi": [
    {
      "anonymous": false,
      "inputs": [
        {
          "indexed": false,
          "internalType": "string",
          "name": "name",
          "type": "string"
        }
      ],
      "name": "codeUploaded",
      "type": "event"
    },
    {
      "inputs": [
        {
          "internalType": "string",
          "name": "name",
          "type": "string"
        },
        {
          "internalType": "bytes",
          "name": "input",
          "type": "bytes"
        }
      ],
      "name": "callFunc",
      "outputs": [
        {
          "internalType": "bytes",
          "name": "",
          "type": "bytes"
        }
      ],
      "stateMutability": "view",
      "type": "function"
    },
    {
      "inputs": [
        {
          "internalType": "string",
          "name": "name",
          "type": "string"
        }
      ],
      "name": "getCode",
      "outputs": [
        {
          "internalType": "string",
          "name": "",
          "type": "string"
        }
      ],
      "stateMutability": "view",
      "type": "function"
    },
    {
      "inputs": [
        {
          "internalType": "string",
          "name": "name",
          "type": "string"
        }
      ],
      "name": "getGas",
      "outputs": [
        {
          "internalType": "uint64",
          "name": "",
          "type": "uint64"
        }
      ],
      "stateMutability": "view",
      "type": "function"
    },
    {
      "inputs": [
        {
          "internalType": "string",
          "name": "name",
          "type": "string"
        }
      ],
      "name": "getInfo",
      "outputs": [
        {
          "internalType": "string",
          "name": "code",
          "type": "string"
        },
        {
          "internalType": "uint64",
          "name": "gas",
          "type": "uint64"
        },
        {
          "internalType": "string",
          "name": "itype",
          "type": "string"
        },
        {
          "internalType": "string",
          "name": "otype",
          "type": "string"
        }
      ],
      "stateMutability": "view",
      "type": "function"
    },
    {
      "inputs": [
        {
          "internalType": "string",
          "name": "name",
          "type": "string"
        },
        {
          "internalType": "uint64",
          "name": "_gas",
          "type": "uint64"
        }
      ],
      "name": "updataGas",
      "outputs": [],
      "stateMutability": "nonpayable",
      "type": "function"
    },
    {
      "inputs": [
        {
          "internalType": "string",
          "name": "name",
          "type": "string"
        },
        {
          "internalType": "string",
          "name": "code",
          "type": "string"
        },
        {
          "internalType": "uint64",
          "name": "gas",
          "type": "uint64"
        },
        {
          "internalType": "string",
          "name": "itype",
          "type": "string"
        },
        {
          "internalType": "string",
          "name": "otype",
          "type": "string"
        }
      ],
      "name": "uploadCode",
      "outputs": [],
      "stateMutability": "nonpayable",
      "type": "function"
    }
  ],
  "bytecode": "0x608060405234801561001057600080fd5b506112c3806100206000396000f3fe608060405234801561001057600080fd5b50600436106100625760003560e01c806335385d3b14610067578063654aedac146100835780637aae9fd31461009f5780637ee005ab146100cf5780638d1cc92514610102578063a928a0a514610132575b600080fd5b610081600480360381019061007c919061095d565b610162565b005b61009d60048036038101906100989190610a48565b6102ee565b005b6100b960048036038101906100b49190610aa4565b6103f6565b6040516100c69190610afc565b60405180910390f35b6100e960048036038101906100e49190610aa4565b610434565b6040516100f99493929190610b96565b60405180910390f35b61011c60048036038101906101179190610aa4565b610687565b6040516101299190610bf0565b60405180910390f35b61014c60048036038101906101479190610cb3565b61073a565b6040516101599190610d80565b60405180910390f35b60008451116101a6576040517f08c379a000000000000000000000000000000000000000000000000000000000815260040161019d90610dee565b60405180910390fd5b60008367ffffffffffffffff16116101f3576040517f08c379a00000000000000000000000000000000000000000000000000000000081526004016101ea90610e5a565b60405180910390fd5b60405180608001604052808581526020018467ffffffffffffffff1681526020018381526020018281525060008660405161022e9190610eb6565b9081526020016040518091039020600082015181600001908161025191906110e3565b5060208201518160010160006101000a81548167ffffffffffffffff021916908367ffffffffffffffff160217905550604082015181600201908161029691906110e3565b5060608201518160030190816102ac91906110e3565b509050507f216ea73b51250acb1ee871f3542d9cc514c594413904bc1c2b0e0d6088e767f2856040516102df9190610bf0565b60405180910390a15050505050565b600080836040516102ff9190610eb6565b9081526020016040518091039020600001805461031b90610efc565b90501161035d576040517f08c379a000000000000000000000000000000000000000000000000000000000815260040161035490611201565b60405180910390fd5b60008167ffffffffffffffff16116103aa576040517f08c379a00000000000000000000000000000000000000000000000000000000081526004016103a190610e5a565b60405180910390fd5b806000836040516103bb9190610eb6565b908152602001604051809103902060010160006101000a81548167ffffffffffffffff021916908367ffffffffffffffff1602179055505050565b600080826040516104079190610eb6565b908152602001604051809103902060010160009054906101000a900467ffffffffffffffff169050919050565b6060600060608060008560405161044b9190610eb6565b908152602001604051809103902060000160008660405161046c9190610eb6565b908152602001604051809103902060010160009054906101000a900467ffffffffffffffff166000876040516104a29190610eb6565b90815260200160405180910390206002016000886040516104c39190610eb6565b90815260200160405180910390206003018380546104e090610efc565b80601f016020809104026020016040519081016040528092919081815260200182805461050c90610efc565b80156105595780601f1061052e57610100808354040283529160200191610559565b820191906000526020600020905b81548152906001019060200180831161053c57829003601f168201915b5050505050935081805461056c90610efc565b80601f016020809104026020016040519081016040528092919081815260200182805461059890610efc565b80156105e55780601f106105ba576101008083540402835291602001916105e5565b820191906000526020600020905b8154815290600101906020018083116105c857829003601f168201915b505050505091508080546105f890610efc565b80601f016020809104026020016040519081016040528092919081815260200182805461062490610efc565b80156106715780601f1061064657610100808354040283529160200191610671565b820191906000526020600020905b81548152906001019060200180831161065457829003601f168201915b5050505050905093509350935093509193509193565b60606000826040516106999190610eb6565b908152602001604051809103902060000180546106b590610efc565b80601f01602080910402602001604051908101604052809291908181526020018280546106e190610efc565b801561072e5780601f106107035761010080835404028352916020019161072e565b820191906000526020600020905b81548152906001019060200180831161071157829003601f168201915b50505050509050919050565b60606000808460405161074d9190610eb6565b908152602001604051809103902060010160009054906101000a900467ffffffffffffffff1667ffffffffffffffff16116107bd576040517f08c379a00000000000000000000000000000000000000000000000000000000081526004016107b49061126d565b60405180910390fd5b92915050565b6000604051905090565b600080fd5b600080fd5b600080fd5b600080fd5b6000601f19601f8301169050919050565b7f4e487b7100000000000000000000000000000000000000000000000000000000600052604160045260246000fd5b61082a826107e1565b810181811067ffffffffffffffff82111715610849576108486107f2565b5b80604052505050565b600061085c6107c3565b90506108688282610821565b919050565b600067ffffffffffffffff821115610888576108876107f2565b5b610891826107e1565b9050602081019050919050565b82818337600083830152505050565b60006108c06108bb8461086d565b610852565b9050828152602081018484840111156108dc576108db6107dc565b5b6108e784828561089e565b509392505050565b600082601f830112610904576109036107d7565b5b81356109148482602086016108ad565b91505092915050565b600067ffffffffffffffff82169050919050565b61093a8161091d565b811461094557600080fd5b50565b60008135905061095781610931565b92915050565b600080600080600060a08688031215610979576109786107cd565b5b600086013567ffffffffffffffff811115610997576109966107d2565b5b6109a3888289016108ef565b955050602086013567ffffffffffffffff8111156109c4576109c36107d2565b5b6109d0888289016108ef565b94505060406109e188828901610948565b935050606086013567ffffffffffffffff811115610a0257610a016107d2565b5b610a0e888289016108ef565b925050608086013567ffffffffffffffff811115610a2f57610a2e6107d2565b5b610a3b888289016108ef565b9150509295509295909350565b60008060408385031215610a5f57610a5e6107cd565b5b600083013567ffffffffffffffff811115610a7d57610a7c6107d2565b5b610a89858286016108ef565b9250506020610a9a85828601610948565b9150509250929050565b600060208284031215610aba57610ab96107cd565b5b600082013567ffffffffffffffff811115610ad857610ad76107d2565b5b610ae4848285016108ef565b91505092915050565b610af68161091d565b82525050565b6000602082019050610b116000830184610aed565b92915050565b600081519050919050565b600082825260208201905092915050565b60005b83811015610b51578082015181840152602081019050610b36565b60008484015250505050565b6000610b6882610b17565b610b728185610b22565b9350610b82818560208601610b33565b610b8b816107e1565b840191505092915050565b60006080820190508181036000830152610bb08187610b5d565b9050610bbf6020830186610aed565b8181036040830152610bd18185610b5d565b90508181036060830152610be58184610b5d565b905095945050505050565b60006020820190508181036000830152610c0a8184610b5d565b905092915050565b600067ffffffffffffffff821115610c2d57610c2c6107f2565b5b610c36826107e1565b9050602081019050919050565b6000610c56610c5184610c12565b610852565b905082815260208101848484011115610c7257610c716107dc565b5b610c7d84828561089e565b509392505050565b600082601f830112610c9a57610c996107d7565b5b8135610caa848260208601610c43565b91505092915050565b60008060408385031215610cca57610cc96107cd565b5b600083013567ffffffffffffffff811115610ce857610ce76107d2565b5b610cf4858286016108ef565b925050602083013567ffffffffffffffff811115610d1557610d146107d2565b5b610d2185828601610c85565b9150509250929050565b600081519050919050565b600082825260208201905092915050565b6000610d5282610d2b565b610d5c8185610d36565b9350610d6c818560208601610b33565b610d75816107e1565b840191505092915050565b60006020820190508181036000830152610d9a8184610d47565b905092915050565b7f436f64652063616e6e6f7420626520656d707479000000000000000000000000600082015250565b6000610dd8601483610b22565b9150610de382610da2565b602082019050919050565b60006020820190508181036000830152610e0781610dcb565b9050919050565b7f676173206973206c657373207468616e20300000000000000000000000000000600082015250565b6000610e44601283610b22565b9150610e4f82610e0e565b602082019050919050565b60006020820190508181036000830152610e7381610e37565b9050919050565b600081905092915050565b6000610e9082610b17565b610e9a8185610e7a565b9350610eaa818560208601610b33565b80840191505092915050565b6000610ec28284610e85565b915081905092915050565b7f4e487b7100000000000000000000000000000000000000000000000000000000600052602260045260246000fd5b60006002820490506001821680610f1457607f821691505b602082108103610f2757610f26610ecd565b5b50919050565b60008190508160005260206000209050919050565b60006020601f8301049050919050565b600082821b905092915050565b600060088302610f8f7fffffffffffffffffffffffffffffffffffffffffffffffffffffffffffffffff82610f52565b610f998683610f52565b95508019841693508086168417925050509392505050565b6000819050919050565b6000819050919050565b6000610fe0610fdb610fd684610fb1565b610fbb565b610fb1565b9050919050565b6000819050919050565b610ffa83610fc5565b61100e61100682610fe7565b848454610f5f565b825550505050565b600090565b611023611016565b61102e818484610ff1565b505050565b5b818110156110525761104760008261101b565b600181019050611034565b5050565b601f8211156110975761106881610f2d565b61107184610f42565b81016020851015611080578190505b61109461108c85610f42565b830182611033565b50505b505050565b600082821c905092915050565b60006110ba6000198460080261109c565b1980831691505092915050565b60006110d383836110a9565b9150826002028217905092915050565b6110ec82610b17565b67ffffffffffffffff811115611105576111046107f2565b5b61110f8254610efc565b61111a828285611056565b600060209050601f83116001811461114d576000841561113b578287015190505b61114585826110c7565b8655506111ad565b601f19841661115b86610f2d565b60005b828110156111835784890151825560018201915060208501945060208101905061115e565b868310156111a0578489015161119c601f8916826110a9565b8355505b6001600288020188555050505b505050505050565b7f436f646520697320656d70747900000000000000000000000000000000000000600082015250565b60006111eb600d83610b22565b91506111f6826111b5565b602082019050919050565b6000602082019050818103600083015261121a816111de565b9050919050565b7f616c676f726974686d206e6f7420657869737400000000000000000000000000600082015250565b6000611257601383610b22565b915061126282611221565b602082019050919050565b600060208201905081810360008301526112868161124a565b905091905056fea2646970667358221220e9f73868341903d1e37c1948a9af9a986b7e555dafa0bbaeb34a9b189209734864736f6c63430008120033",
  "linkReferences": {},
  "deployedLinkReferences": {}
}